{
  "_format": "hh-sol-artifact-1",
  "contractName": "ActivityLogger",
  "sourceName": "contracts/ActivityLogger.sol",
  "abi": [
    {
      "inputs": [],
      "stateMutability": "nonpayable",
      "type": "constructor"
    },
    {
      "anonymous": false,
      "inputs": [
        {
          "indexed": true,
          "internalType": "string",
          "name": "activityHash",
          "type": "string"
        },
        {
          "indexed": false,
          "internalType": "string",
          "name": "activityType",
          "type": "string"
        },
        {
          "indexed": false,
          "internalType": "uint256",
          "name": "timestamp",
          "type": "uint256"
        },
        {
          "indexed": true,
          "internalType": "address",
          "name": "sender",
          "type": "address"
        }
      ],
      "name": "ActivityLogged",
      "type": "event"
    },
    {
      "inputs": [
        {
          "internalType": "string",
          "name": "",
          "type": "string"
        }
      ],
      "name": "activities",
      "outputs": [
        {
          "internalType": "string",
          "name": "activityHash",
          "type": "string"
        },
        {
          "internalType": "string",
          "name": "activityType",
          "type": "string"
        },
        {
          "internalType": "uint256",
          "name": "timestamp",
          "type": "uint256"
        },
        {
          "internalType": "address",
          "name": "sender",
          "type": "address"
        },
        {
          "internalType": "bool",
          "name": "exists",
          "type": "bool"
        }
      ],
      "stateMutability": "view",
      "type": "function"
    },
    {
      "inputs": [
        {
          "internalType": "string",
          "name": "activityHash",
          "type": "string"
        }
      ],
      "name": "activityExists",
      "outputs": [
        {
          "internalType": "bool",
          "name": "",
          "type": "bool"
        }
      ],
      "stateMutability": "view",
      "type": "function"
    },
    {
      "inputs": [],
      "name": "emergencyPause",
      "outputs": [],
      "stateMutability": "nonpayable",
      "type": "function"
    },
    {
      "inputs": [
        {
          "internalType": "string",
          "name": "activityHash",
          "type": "string"
        }
      ],
      "name": "getActivity",
      "outputs": [
        {
          "components": [
            {
              "internalType": "string",
              "name": "activityHash",
              "type": "string"
            },
            {
              "internalType": "string",
              "name": "activityType",
              "type": "string"
            },
            {
              "internalType": "uint256",
              "name": "timestamp",
              "type": "uint256"
            },
            {
              "internalType": "address",
              "name": "sender",
              "type": "address"
            },
            {
              "internalType": "bool",
              "name": "exists",
              "type": "bool"
            }
          ],
          "internalType": "struct ActivityLogger.Activity",
          "name": "",
          "type": "tuple"
        }
      ],
      "stateMutability": "view",
      "type": "function"
    },
    {
      "inputs": [
        {
          "internalType": "string",
          "name": "activityHash",
          "type": "string"
        },
        {
          "internalType": "string",
          "name": "activityType",
          "type": "string"
        },
        {
          "internalType": "uint256",
          "name": "timestamp",
          "type": "uint256"
        }
      ],
      "name": "logActivity",
      "outputs": [],
      "stateMutability": "nonpayable",
      "type": "function"
    },
    {
      "inputs": [],
      "name": "owner",
      "outputs": [
        {
          "internalType": "address",
          "name": "",
          "type": "address"
        }
      ],
      "stateMutability": "view",
      "type": "function"
    },
    {
      "inputs": [
        {
          "internalType": "address",
          "name": "newOwner",
          "type": "address"
        }
      ],
      "name": "transferOwnership",
      "outputs": [],
      "stateMutability": "nonpayable",
      "type": "function"
    }
  ],
  "bytecode": "0x608060405234801561001057600080fd5b5033600160006101000a81548173ffffffffffffffffffffffffffffffffffffffff021916908373ffffffffffffffffffffffffffffffffffffffff16021790555061145c806100616000396000f3fe608060405234801561001057600080fd5b506004361061007d5760003560e01c80638da5cb5b1161005b5780638da5cb5b146100f0578063a460fc9d1461010e578063d5b669a21461012a578063f2fde38b1461015a5761007d565b806324fe37fd1461008257806351858e27146100b6578063637ce440146100c0575b600080fd5b61009c60048036038101906100979190610af5565b610176565b6040516100ad959493929190610c32565b60405180910390f35b6100be6102ff565b005b6100da60048036038101906100d59190610af5565b610391565b6040516100e79190610d87565b60405180910390f35b6100f86105d6565b6040516101059190610da9565b60405180910390f35b61012860048036038101906101239190610df0565b6105fc565b005b610144600480360381019061013f9190610af5565b6107da565b6040516101519190610e7b565b60405180910390f35b610174600480360381019061016f9190610ec2565b610811565b005b6000818051602081018201805184825260208301602085012081835280955050505050506000915090508060000180546101af90610f1e565b80601f01602080910402602001604051908101604052809291908181526020018280546101db90610f1e565b80156102285780601f106101fd57610100808354040283529160200191610228565b820191906000526020600020905b81548152906001019060200180831161020b57829003601f168201915b50505050509080600101805461023d90610f1e565b80601f016020809104026020016040519081016040528092919081815260200182805461026990610f1e565b80156102b65780601f1061028b576101008083540402835291602001916102b6565b820191906000526020600020905b81548152906001019060200180831161029957829003601f168201915b5050505050908060020154908060030160009054906101000a900473ffffffffffffffffffffffffffffffffffffffff16908060030160149054906101000a900460ff16905085565b600160009054906101000a900473ffffffffffffffffffffffffffffffffffffffff1673ffffffffffffffffffffffffffffffffffffffff163373ffffffffffffffffffffffffffffffffffffffff161461038f576040517f08c379a000000000000000000000000000000000000000000000000000000000815260040161038690610fc1565b60405180910390fd5b565b610399610954565b6000826040516103a9919061101d565b908152602001604051809103902060030160149054906101000a900460ff16610407576040517f08c379a00000000000000000000000000000000000000000000000000000000081526004016103fe90611080565b60405180910390fd5b600082604051610417919061101d565b90815260200160405180910390206040518060a001604052908160008201805461044090610f1e565b80601f016020809104026020016040519081016040528092919081815260200182805461046c90610f1e565b80156104b95780601f1061048e576101008083540402835291602001916104b9565b820191906000526020600020905b81548152906001019060200180831161049c57829003601f168201915b505050505081526020016001820180546104d290610f1e565b80601f01602080910402602001604051908101604052809291908181526020018280546104fe90610f1e565b801561054b5780601f106105205761010080835404028352916020019161054b565b820191906000526020600020905b81548152906001019060200180831161052e57829003601f168201915b50505050508152602001600282015481526020016003820160009054906101000a900473ffffffffffffffffffffffffffffffffffffffff1673ffffffffffffffffffffffffffffffffffffffff1673ffffffffffffffffffffffffffffffffffffffff1681526020016003820160149054906101000a900460ff1615151515815250509050919050565b600160009054906101000a900473ffffffffffffffffffffffffffffffffffffffff1681565b60008360405161060c919061101d565b908152602001604051809103902060030160149054906101000a900460ff161561066b576040517f08c379a0000000000000000000000000000000000000000000000000000000008152600401610662906110ec565b60405180910390fd5b60006040518060a001604052808581526020018481526020018381526020013373ffffffffffffffffffffffffffffffffffffffff168152602001600115158152509050806000856040516106c0919061101d565b908152602001604051809103902060008201518160000190816106e391906112b8565b5060208201518160010190816106f991906112b8565b506040820151816002015560608201518160030160006101000a81548173ffffffffffffffffffffffffffffffffffffffff021916908373ffffffffffffffffffffffffffffffffffffffff16021790555060808201518160030160146101000a81548160ff0219169083151502179055509050503373ffffffffffffffffffffffffffffffffffffffff1684604051610793919061101d565b60405180910390207f80ad83d9e20db3ffb3a6291ad209bb0275b00b32e90f9568b388e9a89b20f7a985856040516107cc92919061138a565b60405180910390a350505050565b600080826040516107eb919061101d565b908152602001604051809103902060030160149054906101000a900460ff169050919050565b600160009054906101000a900473ffffffffffffffffffffffffffffffffffffffff1673ffffffffffffffffffffffffffffffffffffffff163373ffffffffffffffffffffffffffffffffffffffff16146108a1576040517f08c379a000000000000000000000000000000000000000000000000000000000815260040161089890610fc1565b60405180910390fd5b600073ffffffffffffffffffffffffffffffffffffffff168173ffffffffffffffffffffffffffffffffffffffff1603610910576040517f08c379a000000000000000000000000000000000000000000000000000000000815260040161090790611406565b60405180910390fd5b80600160006101000a81548173ffffffffffffffffffffffffffffffffffffffff021916908373ffffffffffffffffffffffffffffffffffffffff16021790555050565b6040518060a00160405280606081526020016060815260200160008152602001600073ffffffffffffffffffffffffffffffffffffffff1681526020016000151581525090565b6000604051905090565b600080fd5b600080fd5b600080fd5b600080fd5b6000601f19601f8301169050919050565b7f4e487b7100000000000000000000000000000000000000000000000000000000600052604160045260246000fd5b610a02826109b9565b810181811067ffffffffffffffff82111715610a2157610a206109ca565b5b80604052505050565b6000610a3461099b565b9050610a4082826109f9565b919050565b600067ffffffffffffffff821115610a6057610a5f6109ca565b5b610a69826109b9565b9050602081019050919050565b82818337600083830152505050565b6000610a98610a9384610a45565b610a2a565b905082815260208101848484011115610ab457610ab36109b4565b5b610abf848285610a76565b509392505050565b600082601f830112610adc57610adb6109af565b5b8135610aec848260208601610a85565b91505092915050565b600060208284031215610b0b57610b0a6109a5565b5b600082013567ffffffffffffffff811115610b2957610b286109aa565b5b610b3584828501610ac7565b91505092915050565b600081519050919050565b600082825260208201905092915050565b60005b83811015610b78578082015181840152602081019050610b5d565b60008484015250505050565b6000610b8f82610b3e565b610b998185610b49565b9350610ba9818560208601610b5a565b610bb2816109b9565b840191505092915050565b6000819050919050565b610bd081610bbd565b82525050565b600073ffffffffffffffffffffffffffffffffffffffff82169050919050565b6000610c0182610bd6565b9050919050565b610c1181610bf6565b82525050565b60008115159050919050565b610c2c81610c17565b82525050565b600060a0820190508181036000830152610c4c8188610b84565b90508181036020830152610c608187610b84565b9050610c6f6040830186610bc7565b610c7c6060830185610c08565b610c896080830184610c23565b9695505050505050565b600082825260208201905092915050565b6000610caf82610b3e565b610cb98185610c93565b9350610cc9818560208601610b5a565b610cd2816109b9565b840191505092915050565b610ce681610bbd565b82525050565b610cf581610bf6565b82525050565b610d0481610c17565b82525050565b600060a0830160008301518482036000860152610d278282610ca4565b91505060208301518482036020860152610d418282610ca4565b9150506040830151610d566040860182610cdd565b506060830151610d696060860182610cec565b506080830151610d7c6080860182610cfb565b508091505092915050565b60006020820190508181036000830152610da18184610d0a565b905092915050565b6000602082019050610dbe6000830184610c08565b92915050565b610dcd81610bbd565b8114610dd857600080fd5b50565b600081359050610dea81610dc4565b92915050565b600080600060608486031215610e0957610e086109a5565b5b600084013567ffffffffffffffff811115610e2757610e266109aa565b5b610e3386828701610ac7565b935050602084013567ffffffffffffffff811115610e5457610e536109aa565b5b610e6086828701610ac7565b9250506040610e7186828701610ddb565b9150509250925092565b6000602082019050610e906000830184610c23565b92915050565b610e9f81610bf6565b8114610eaa57600080fd5b50565b600081359050610ebc81610e96565b92915050565b600060208284031215610ed857610ed76109a5565b5b6000610ee684828501610ead565b91505092915050565b7f4e487b7100000000000000000000000000000000000000000000000000000000600052602260045260246000fd5b60006002820490506001821680610f3657607f821691505b602082108103610f4957610f48610eef565b5b50919050565b7f4f6e6c79206f776e65722063616e2063616c6c20746869732066756e6374696f60008201527f6e00000000000000000000000000000000000000000000000000000000000000602082015250565b6000610fab602183610b49565b9150610fb682610f4f565b604082019050919050565b60006020820190508181036000830152610fda81610f9e565b9050919050565b600081905092915050565b6000610ff782610b3e565b6110018185610fe1565b9350611011818560208601610b5a565b80840191505092915050565b60006110298284610fec565b915081905092915050565b7f4163746976697479206e6f7420666f756e640000000000000000000000000000600082015250565b600061106a601283610b49565b915061107582611034565b602082019050919050565b600060208201905081810360008301526110998161105d565b9050919050565b7f416374697669747920616c7265616479206c6f67676564000000000000000000600082015250565b60006110d6601783610b49565b91506110e1826110a0565b602082019050919050565b60006020820190508181036000830152611105816110c9565b9050919050565b60008190508160005260206000209050919050565b60006020601f8301049050919050565b600082821b905092915050565b60006008830261116e7fffffffffffffffffffffffffffffffffffffffffffffffffffffffffffffffff82611131565b6111788683611131565b95508019841693508086168417925050509392505050565b6000819050919050565b60006111b56111b06111ab84610bbd565b611190565b610bbd565b9050919050565b6000819050919050565b6111cf8361119a565b6111e36111db826111bc565b84845461113e565b825550505050565b600090565b6111f86111eb565b6112038184846111c6565b505050565b5b818110156112275761121c6000826111f0565b600181019050611209565b5050565b601f82111561126c5761123d8161110c565b61124684611121565b81016020851015611255578190505b61126961126185611121565b830182611208565b50505b505050565b600082821c905092915050565b600061128f60001984600802611271565b1980831691505092915050565b60006112a8838361127e565b9150826002028217905092915050565b6112c182610b3e565b67ffffffffffffffff8111156112da576112d96109ca565b5b6112e48254610f1e565b6112ef82828561122b565b600060209050601f8311600181146113225760008415611310578287015190505b61131a858261129c565b865550611382565b601f1984166113308661110c565b60005b8281101561135857848901518255600182019150602085019450602081019050611333565b868310156113755784890151611371601f89168261127e565b8355505b6001600288020188555050505b505050505050565b600060408201905081810360008301526113a48185610b84565b90506113b36020830184610bc7565b9392505050565b7f4e6577206f776e65722063616e6e6f74206265207a65726f2061646472657373600082015250565b60006113f0602083610b49565b91506113fb826113ba565b602082019050919050565b6000602082019050818103600083015261141f816113e3565b905091905056fea26469706673582212208cf40c72642ccf9cd909acbb7ac7d6a96c982d4cb109ef9321708bbf7a38335364736f6c63430008130033",
  "linkReferences": {},
  "deployedLinkReferences": {}
}